{
  "_format": "hh-sol-artifact-1",
  "contractName": "ExcaliburToken",
  "sourceName": "contracts/ExcaliburToken.sol",
  "abi": [
    {
      "inputs": [],
      "stateMutability": "nonpayable",
      "type": "constructor"
    },
    {
      "anonymous": false,
      "inputs": [
        {
          "indexed": true,
          "internalType": "address",
          "name": "_owner",
          "type": "address"
        },
        {
          "indexed": true,
          "internalType": "address",
          "name": "_spender",
          "type": "address"
        },
        {
          "indexed": false,
          "internalType": "uint256",
          "name": "_value",
          "type": "uint256"
        }
      ],
      "name": "Approval",
      "type": "event"
    },
    {
      "anonymous": false,
      "inputs": [
        {
          "indexed": true,
          "internalType": "address",
          "name": "_from",
          "type": "address"
        },
        {
          "indexed": true,
          "internalType": "address",
          "name": "_to",
          "type": "address"
        }
      ],
      "name": "OwnershipTransferred",
      "type": "event"
    },
    {
      "anonymous": false,
      "inputs": [
        {
          "indexed": true,
          "internalType": "address",
          "name": "_from",
          "type": "address"
        },
        {
          "indexed": true,
          "internalType": "address",
          "name": "_to",
          "type": "address"
        },
        {
          "indexed": false,
          "internalType": "uint256",
          "name": "_value",
          "type": "uint256"
        }
      ],
      "name": "Transfer",
      "type": "event"
    },
    {
      "inputs": [],
      "name": "_decimals",
      "outputs": [
        {
          "internalType": "uint8",
          "name": "",
          "type": "uint8"
        }
      ],
      "stateMutability": "view",
      "type": "function"
    },
    {
      "inputs": [],
      "name": "_name",
      "outputs": [
        {
          "internalType": "string",
          "name": "",
          "type": "string"
        }
      ],
      "stateMutability": "view",
      "type": "function"
    },
    {
      "inputs": [],
      "name": "_symbol",
      "outputs": [
        {
          "internalType": "string",
          "name": "",
          "type": "string"
        }
      ],
      "stateMutability": "view",
      "type": "function"
    },
    {
      "inputs": [],
      "name": "_totalSupply",
      "outputs": [
        {
          "internalType": "uint256",
          "name": "",
          "type": "uint256"
        }
      ],
      "stateMutability": "view",
      "type": "function"
    },
    {
      "inputs": [],
      "name": "acceptOwnership",
      "outputs": [],
      "stateMutability": "nonpayable",
      "type": "function"
    },
    {
      "inputs": [
        {
          "internalType": "address",
          "name": "_owner",
          "type": "address"
        },
        {
          "internalType": "address",
          "name": "_spender",
          "type": "address"
        }
      ],
      "name": "allowance",
      "outputs": [
        {
          "internalType": "uint256",
          "name": "remaining",
          "type": "uint256"
        }
      ],
      "stateMutability": "view",
      "type": "function"
    },
    {
      "inputs": [
        {
          "internalType": "address",
          "name": "_spender",
          "type": "address"
        },
        {
          "internalType": "uint256",
          "name": "_value",
          "type": "uint256"
        }
      ],
      "name": "approve",
      "outputs": [
        {
          "internalType": "bool",
          "name": "success",
          "type": "bool"
        }
      ],
      "stateMutability": "nonpayable",
      "type": "function"
    },
    {
      "inputs": [
        {
          "internalType": "address",
          "name": "_owner",
          "type": "address"
        }
      ],
      "name": "balanceOf",
      "outputs": [
        {
          "internalType": "uint256",
          "name": "_balance",
          "type": "uint256"
        }
      ],
      "stateMutability": "view",
      "type": "function"
    },
    {
      "inputs": [
        {
          "internalType": "uint256",
          "name": "amount",
          "type": "uint256"
        }
      ],
      "name": "burn",
      "outputs": [
        {
          "internalType": "bool",
          "name": "",
          "type": "bool"
        }
      ],
      "stateMutability": "nonpayable",
      "type": "function"
    },
    {
      "inputs": [],
      "name": "decimals",
      "outputs": [
        {
          "internalType": "uint8",
          "name": "",
          "type": "uint8"
        }
      ],
      "stateMutability": "view",
      "type": "function"
    },
    {
      "inputs": [
        {
          "internalType": "address",
          "name": "to",
          "type": "address"
        },
        {
          "internalType": "uint256",
          "name": "amount",
          "type": "uint256"
        }
      ],
      "name": "mint",
      "outputs": [
        {
          "internalType": "bool",
          "name": "",
          "type": "bool"
        }
      ],
      "stateMutability": "nonpayable",
      "type": "function"
    },
    {
      "inputs": [],
      "name": "name",
      "outputs": [
        {
          "internalType": "string",
          "name": "",
          "type": "string"
        }
      ],
      "stateMutability": "view",
      "type": "function"
    },
    {
      "inputs": [],
      "name": "newOwner",
      "outputs": [
        {
          "internalType": "address",
          "name": "",
          "type": "address"
        }
      ],
      "stateMutability": "view",
      "type": "function"
    },
    {
      "inputs": [],
      "name": "owner",
      "outputs": [
        {
          "internalType": "address",
          "name": "",
          "type": "address"
        }
      ],
      "stateMutability": "view",
      "type": "function"
    },
    {
      "inputs": [],
      "name": "symbol",
      "outputs": [
        {
          "internalType": "string",
          "name": "",
          "type": "string"
        }
      ],
      "stateMutability": "view",
      "type": "function"
    },
    {
      "inputs": [],
      "name": "totalSupply",
      "outputs": [
        {
          "internalType": "uint256",
          "name": "",
          "type": "uint256"
        }
      ],
      "stateMutability": "view",
      "type": "function"
    },
    {
      "inputs": [
        {
          "internalType": "address",
          "name": "_to",
          "type": "address"
        },
        {
          "internalType": "uint256",
          "name": "_value",
          "type": "uint256"
        }
      ],
      "name": "transfer",
      "outputs": [
        {
          "internalType": "bool",
          "name": "success",
          "type": "bool"
        }
      ],
      "stateMutability": "nonpayable",
      "type": "function"
    },
    {
      "inputs": [
        {
          "internalType": "address",
          "name": "_from",
          "type": "address"
        },
        {
          "internalType": "address",
          "name": "_to",
          "type": "address"
        },
        {
          "internalType": "uint256",
          "name": "_value",
          "type": "uint256"
        }
      ],
      "name": "transferFrom",
      "outputs": [
        {
          "internalType": "bool",
          "name": "success",
          "type": "bool"
        }
      ],
      "stateMutability": "nonpayable",
      "type": "function"
    },
    {
      "inputs": [
        {
          "internalType": "address",
          "name": "_to",
          "type": "address"
        }
      ],
      "name": "transferOwnership",
      "outputs": [],
      "stateMutability": "nonpayable",
      "type": "function"
    }
  ],
  "bytecode": "0x608060405234801561001057600080fd5b50600080546001600160a01b0319163317905560408051808201909152600280825261115560f21b602090920191825261004a91816100ab565b5060408051808201909152600e8082526d22bc31b0b634b13ab92a37b5b2b760911b6020909201918252610080916003916100ab565b506004805460ff1916600217905561271060058190553360009081526006602052604090205561017f565b8280546100b790610144565b90600052602060002090601f0160209004810192826100d9576000855561011f565b82601f106100f257805160ff191683800117855561011f565b8280016001018555821561011f579182015b8281111561011f578251825591602001919060010190610104565b5061012b92915061012f565b5090565b5b8082111561012b5760008155600101610130565b60028104600182168061015857607f821691505b6020821081141561017957634e487b7160e01b600052602260045260246000fd5b50919050565b6109de8061018e6000396000f3fe608060405234801561001057600080fd5b50600436106101215760003560e01c806370a08231116100ad578063b09f126611610071578063b09f126614610224578063d28d88521461022c578063d4ee1d9014610234578063dd62ed3e1461023c578063f2fde38b1461024f57610121565b806370a08231146101d757806379ba5097146101ea5780638da5cb5b146101f457806395d89b4114610209578063a9059cbb1461021157610121565b8063313ce567116100f4578063313ce5671461018c57806332424aa3146101a15780633eaaf86b146101a957806340c10f19146101b157806342966c68146101c457610121565b806306fdde0314610126578063095ea7b31461014457806318160ddd1461016457806323b872dd14610179575b600080fd5b61012e610262565b60405161013b9190610887565b60405180910390f35b610157610152366004610827565b6102f4565b60405161013b919061087c565b61016c61035e565b60405161013b9190610911565b6101576101873660046107ec565b610364565b61019461043a565b60405161013b919061091a565b610194610443565b61016c61044c565b6101576101bf366004610827565b610452565b6101576101d2366004610850565b6104d6565b61016c6101e53660046107a0565b6105b3565b6101f26105ce565b005b6101fc610649565b60405161013b9190610868565b61012e610658565b61015761021f366004610827565b610667565b61012e61067b565b61012e610709565b6101fc610716565b61016c61024a3660046107ba565b610725565b6101f261025d3660046107a0565b610750565b60606003805461027190610957565b80601f016020809104026020016040519081016040528092919081815260200182805461029d90610957565b80156102ea5780601f106102bf576101008083540402835291602001916102ea565b820191906000526020600020905b8154815290600101906020018083116102cd57829003601f168201915b5050505050905090565b3360008181526007602090815260408083206001600160a01b038716808552925280832085905551919290917f8c5be1e5ebec7d5bd14f71427d1e84f3dd0314c0f7b2291e5b200ac8c7c3b9259061034d908690610911565b60405180910390a350600192915050565b60055490565b6001600160a01b03831660009081526006602052604081205482111561038957600080fd5b6001600160a01b038416600090815260066020526040812080548492906103b1908490610940565b90915550506001600160a01b038316600090815260066020526040812080548492906103de908490610928565b92505081905550826001600160a01b0316846001600160a01b03167fddf252ad1be2c89b69c2b068fc378daa952ba7f163c4a11628f55a4df523b3ef846040516104289190610911565b60405180910390a35060019392505050565b60045460ff1690565b60045460ff1681565b60055481565b600081600560008282546104669190610928565b90915550506001600160a01b03831660009081526006602052604081208054849290610493908490610928565b90915550506040516001600160a01b038416906000907fddf252ad1be2c89b69c2b068fc378daa952ba7f163c4a11628f55a4df523b3ef9061034d908690610911565b60008160055410156105035760405162461bcd60e51b81526004016104fa906108da565b60405180910390fd5b336000908152600660205260409020548211156105325760405162461bcd60e51b81526004016104fa906108da565b81600560008282546105449190610940565b90915550503360009081526006602052604081208054849290610568908490610940565b909155505060405160009033907fddf252ad1be2c89b69c2b068fc378daa952ba7f163c4a11628f55a4df523b3ef906105a2908690610911565b60405180910390a35060015b919050565b6001600160a01b031660009081526006602052604090205490565b6001546001600160a01b031633146105e557600080fd5b600154600080546040516001600160a01b0393841693909116917f8be0079c531659141344cd1fd0a4f28419497f9722a3daafe3b4186f6b6457e091a360018054600080546001600160a01b03199081166001600160a01b03841617909155169055565b6000546001600160a01b031681565b60606002805461027190610957565b6000610674338484610364565b9392505050565b6002805461068890610957565b80601f01602080910402602001604051908101604052809291908181526020018280546106b490610957565b80156107015780601f106106d657610100808354040283529160200191610701565b820191906000526020600020905b8154815290600101906020018083116106e457829003601f168201915b505050505081565b6003805461068890610957565b6001546001600160a01b031681565b6001600160a01b03918216600090815260076020908152604080832093909416825291909152205490565b6000546001600160a01b0316331461076757600080fd5b600180546001600160a01b0319166001600160a01b0392909216919091179055565b80356001600160a01b03811681146105ae57600080fd5b6000602082840312156107b1578081fd5b61067482610789565b600080604083850312156107cc578081fd5b6107d583610789565b91506107e360208401610789565b90509250929050565b600080600060608486031215610800578081fd5b61080984610789565b925061081760208501610789565b9150604084013590509250925092565b60008060408385031215610839578182fd5b61084283610789565b946020939093013593505050565b600060208284031215610861578081fd5b5035919050565b6001600160a01b0391909116815260200190565b901515815260200190565b6000602080835283518082850152825b818110156108b357858101830151858201604001528201610897565b818111156108c45783604083870101525b50601f01601f1916929092016040019392505050565b60208082526019908201527f4e6f7420656e6f75676820746f6b656e7320746f206275726e00000000000000604082015260600190565b90815260200190565b60ff91909116815260200190565b6000821982111561093b5761093b610992565b500190565b60008282101561095257610952610992565b500390565b60028104600182168061096b57607f821691505b6020821081141561098c57634e487b7160e01b600052602260045260246000fd5b50919050565b634e487b7160e01b600052601160045260246000fdfea264697066735822122014ef664033161061c46a7ab654006625beeb059c28370d8489778a2734864c2164736f6c63430008000033",
  "linkReferences": {},
  "deployedLinkReferences": {}
}